:100000000C942A000C9434000C9434000C943400AA
:100010000C9434000C9434000C9434000C94340090
:100020000C9434000C9434000C9434000C94340080
:100030000C9434000C9434000C9434000C94340070
:100040000C9434000C9434000C9434000C94340060
:100050000C94340011241FBECFE5D4E0DEBFCDBF29
:100060000E9436000C94D5000C94000011BA8FEF5A
:1000700087BB82BBAAEF49E150E069EFB5EF76EFAD
:1000800080B390E0803F910511F4A8BB42C0883F47
:10009000910599F4B8BB28EB3BE0FA013197F1F7F1
:1000A00021503040D1F768BB28E833E1FA0131979D
:1000B000F1F721503040D1F758C0843F910599F4B1
:1000C000B8BB28EB3BE0FA013197F1F72150304003
:1000D000D1F778BB28E833E1FA013197F1F72150E5
:1000E0003040D1F747C08237910599F4A8BB28EB7F
:1000F0003BE0FA013197F1F721503040D1F768BB6E
:1001000028E833E1FA013197F1F721503040D1F777
:1001100036C0813F910599F4A8BB28EB3BE0FA017A
:100120003197F1F721503040D1F778BB28E833E11F
:10013000FA013197F1F721503040D1F725C08C3FBB
:10014000910599F4B8BB28EB3BE0FA013197F1F740
:1001500021503040D1F768BB28E833E1FA013197EC
:10016000F1F721503040D1F717C0893F910511F4C4
:1001700068BB0DC0833F910511F4A8BB0DC0863F3D
:10018000910511F478BB0BC08E3F910519F0873FA4
:10019000910511F478BB74CF8B3F910521F08D3F11
:0E01A000910509F06DCF68BB6BCFF894FFCFCF
:00000001FF
